:020000040800F2
:1000000000500020A9050008450500084D0500081E
:10001000550500085D0500086505000800000000A2
:100020000000000000000000000000006D05000856
:10003000790500080000000085050008910500080A
:10004000F1050008F1050008F1050008F1050008B8
:10005000F1050008F1050008F1050008F1050008A8
:10006000F1050008F1050008F1050008F105000898
:10007000F1050008F1050008F1050008F105000888
:10008000F1050008F1050008F1050008F105000878
:10009000F1050008F1050008F1050008F105000868
:1000A000F1050008F1050008F1050008F105000858
:1000B000F1050008F1050008F1050008F105000848
:1000C000F1050008F1050008F1050008F105000838
:1000D000F1050008F1050008F1050008F105000828
:1000E000F1050008F1050008F10500080000000016
:1000F0000000000000000000000000000000000000
:0C01000000000000000000005FF808F1A3
:10010C0010B5054C237833B9044B13B10448AFF345
:10011C0000800123237010BD0400002000000000AB
:10012C006006000808B5034B1BB103490348AFF345
:10013C00008008BD000000000800002060060008D8
:10014C0080B485B000AF78600023FB6003E000BF93
:10015C00FB680133FB607B68DB00FA689A42F6D3DC
:10016C0000BF00BF1437BD4680BC704780B582B05D
:10017C0000AF78607B685B791A46012303FA02F2C0
:10018C007B681B681A613220FFF7DAFF7B685B79AA
:10019C001A46012303FA02F27B681B685A6132206B
:1001AC00FFF7CEFF00BF0837BD4680BD80B582B0DB
:1001BC0000AF78600B46FB707B689B791A460F2367
:1001CC0003FA02F27B681B685A61FB7803F00F0399
:1001DC007A68927903FA02F27B681B681A61786874
:1001EC00FFF7C4FF00BF0837BD4680BD80B582B0A5
:1001FC0000AF78600B46FB707B681B791A460123B5
:10020C0003FA02F27B681B685A61FB781B09DBB2AC
:10021C0019467868FFF7CAFFFB7803F00F03DBB2CF
:10022C0019467868FFF7C2FF4FF4FA60FFF788FFB2
:10023C0000BF0837BD4680BD80B582B000AF786086
:10024C000B46FB707B681B791A46012303FA02F2FA
:10025C007B681B681A61FB781B09DBB2194678684E
:10026C00FFF7A4FFFB7803F00F03DBB219467868A5
:10027C00FFF79CFF4FF4FA60FFF762FF00BF0837EF
:10028C00BD4680BD80B586B000AF78600B46FB7074
:10029C001346BB707B68FA789A727B68BA78DA720C
:1002AC007B681B68544A934205D1544B9B69534A53
:1002BC0043F0040393617B681B68514A934205D158
:1002CC004E4B9B694D4A43F0080393617B681B6856
:1002DC004C4A934205D1494B9B69484A43F0100361
:1002EC0093617B681B793B737B685B797B737B6861
:1002FC009B79BB737B68DB79FB737B681B7A3B74E4
:10030C007B685B7A7B7400237B6152E007F10C0203
:10031C007B6913441B78072B23D87B681B681A68EE
:10032C0007F10C017B690B441B789B000F2101FA30
:10033C0003F3DB4319467B681B680A401A607B6831
:10034C001B681A6807F10C017B690B441B789B0036
:10035C00022101FA03F319467B681B680A431A60F1
:10036C0024E07B681B685A6807F10C017B690B441D
:10037C001B78083B9B000F2101FA03F3DB43194662
:10038C007B681B680A405A607B681B685A6807F1D7
:10039C000C017B690B441B78083B9B00022101FA82
:1003AC0003F319467B681B680A435A607B69013367
:1003BC007B617B69052BA9DD49F64040FFF7C0FE48
:1003CC0033217868FFF712FF32217868FFF70EFFB0
:1003DC0028217868FFF70AFF0C217868FFF706FFE1
:1003EC0006217868FFF702FF786800F00DF800BF6F
:1003FC001837BD4680BD00BF000801400010024008
:10040C00000C01400010014080B582B000AF786054
:10041C0001217868FFF7EAFE4FF4FA60FFF790FECF
:10042C0000BF0837BD4680BD80B584B000AF786092
:10043C000B46FB701346BB70BB78002B01D100231D
:10044C0000E04023FB73FA7BFB781344FB73FB7BCC
:10045C0063F07F03DBB219467868FFF7C7FE00BF75
:10046C001037BD4680BD80B582B000AF7860396072
:10047C0007E03B685A1C3A601B7819467868FFF70E
:10048C00DBFE3B681B78002BF3D100BF00BF0837A5
:10049C00BD4680BD80B485B000AF78600023FB60A2
:1004AC0003E000BFFB680133FB607B684FF44872CC
:1004BC0002FB03F3FA689A42F3D300BF00BF143770
:1004CC00BD4680BC7047000080B584B000AF174BB0
:1004DC007B6000233B7201237B720223BB720323DC
:1004EC00FB7204233B7305237B733B1D02221021FB
:1004FC001846FFF7C7FE3B1D002200211846FFF7E8
:10050C0093FF3B1D0A491846FFF7ADFF3B1D012227
:10051C0000211846FFF788FF3B1D06491846FFF7D8
:10052C00A2FF4FF4FA70FFF7B5FFFAE7000801409D
:10053C00780600088806000880B400AF00BFFDE70D
:10054C0080B400AF00BFFDE780B400AF00BFFDE793
:10055C0080B400AF00BFFDE780B400AF00BFFDE783
:10056C0080B400AF00BFBD4680BC704780B400AF04
:10057C0000BFBD4680BC704780B400AF00BFBD4615
:10058C0080BC704780B500AF00F02EF800BF80BD76
:10059C0080B400AF00BFBD4680BC7047FFF7F8FFCA
:1005AC000B480C490C4A002302E0D458C4500433C5
:1005BC00C4188C42F9D3094A094C002301E013609A
:1005CC000432A242FBD300F021F8FFF77DFF704705
:1005DC000000002004000020A006000804000020F9
:1005EC0024000020FEE7000080B400AF054B1B7810
:1005FC001A46054B1B681344034A136000BFBD46E3
:10060C0080BC7047000000202000002070B5002640
:10061C000C4D0D4C641BA410A64209D100F01AF825
:10062C0000260A4D0A4C641BA410A64205D170BDCD
:10063C0055F8043B98470136EEE755F8043B9847CC
:10064C000136F2E79806000898060008980600089C
:10065C009C060008F8B500BFF8BC08BC9E46704765
:0C066C00F8B500BFF8BC08BC9E46704703
:1006780048656C6C6F2053544D33322100000000E4
:100688004C69717569644372797374616C00000018
:040698003101000824
:04069C000D01000844
:0406A0000100000055
:04000005080005A941
:00000001FF
